{
  "_format": "hh-sol-artifact-1",
  "contractName": "MyRegistrar",
  "sourceName": "contracts/MyRegistrar.sol",
  "abi": [
    {
      "inputs": [
        {
          "internalType": "uint256",
          "name": "price",
          "type": "uint256"
        }
      ],
      "stateMutability": "payable",
      "type": "constructor"
    },
    {
      "anonymous": false,
      "inputs": [
        {
          "indexed": true,
          "internalType": "address",
          "name": "previousOwner",
          "type": "address"
        },
        {
          "indexed": true,
          "internalType": "address",
          "name": "newOwner",
          "type": "address"
        }
      ],
      "name": "OwnershipTransferred",
      "type": "event"
    },
    {
      "inputs": [
        {
          "internalType": "address",
          "name": "addy",
          "type": "address"
        },
        {
          "internalType": "bytes32",
          "name": "hash",
          "type": "bytes32"
        }
      ],
      "name": "addHash",
      "outputs": [],
      "stateMutability": "nonpayable",
      "type": "function"
    },
    {
      "inputs": [],
      "name": "balance",
      "outputs": [
        {
          "internalType": "uint256",
          "name": "",
          "type": "uint256"
        }
      ],
      "stateMutability": "view",
      "type": "function"
    },
    {
      "inputs": [],
      "name": "deposit",
      "outputs": [],
      "stateMutability": "payable",
      "type": "function"
    },
    {
      "inputs": [
        {
          "internalType": "address",
          "name": "addy",
          "type": "address"
        }
      ],
      "name": "getHash",
      "outputs": [
        {
          "internalType": "bytes32",
          "name": "",
          "type": "bytes32"
        }
      ],
      "stateMutability": "view",
      "type": "function"
    },
    {
      "inputs": [],
      "name": "getPrice",
      "outputs": [
        {
          "internalType": "uint256",
          "name": "",
          "type": "uint256"
        }
      ],
      "stateMutability": "view",
      "type": "function"
    },
    {
      "inputs": [
        {
          "internalType": "address",
          "name": "addy",
          "type": "address"
        }
      ],
      "name": "hasHash",
      "outputs": [
        {
          "internalType": "bool",
          "name": "",
          "type": "bool"
        }
      ],
      "stateMutability": "view",
      "type": "function"
    },
    {
      "inputs": [
        {
          "internalType": "bytes32",
          "name": "hash",
          "type": "bytes32"
        }
      ],
      "name": "knownHash",
      "outputs": [
        {
          "internalType": "bool",
          "name": "",
          "type": "bool"
        }
      ],
      "stateMutability": "view",
      "type": "function"
    },
    {
      "inputs": [
        {
          "internalType": "bytes32",
          "name": "hash",
          "type": "bytes32"
        }
      ],
      "name": "knownHashAddress",
      "outputs": [
        {
          "internalType": "address",
          "name": "",
          "type": "address"
        }
      ],
      "stateMutability": "view",
      "type": "function"
    },
    {
      "inputs": [],
      "name": "owner",
      "outputs": [
        {
          "internalType": "address",
          "name": "",
          "type": "address"
        }
      ],
      "stateMutability": "view",
      "type": "function"
    },
    {
      "inputs": [
        {
          "internalType": "address",
          "name": "addy",
          "type": "address"
        }
      ],
      "name": "paid",
      "outputs": [
        {
          "internalType": "bool",
          "name": "",
          "type": "bool"
        }
      ],
      "stateMutability": "view",
      "type": "function"
    },
    {
      "inputs": [],
      "name": "renounceOwnership",
      "outputs": [],
      "stateMutability": "nonpayable",
      "type": "function"
    },
    {
      "inputs": [
        {
          "internalType": "uint256",
          "name": "newPrice",
          "type": "uint256"
        }
      ],
      "name": "setPrice",
      "outputs": [],
      "stateMutability": "nonpayable",
      "type": "function"
    },
    {
      "inputs": [
        {
          "internalType": "address",
          "name": "newOwner",
          "type": "address"
        }
      ],
      "name": "transferOwnership",
      "outputs": [],
      "stateMutability": "nonpayable",
      "type": "function"
    },
    {
      "inputs": [
        {
          "internalType": "uint256",
          "name": "amt",
          "type": "uint256"
        }
      ],
      "name": "withdraw",
      "outputs": [],
      "stateMutability": "nonpayable",
      "type": "function"
    }
  ],
  "bytecode": "0x60806040526040516200151438038062001514833981810160405281019062000029919062000141565b620000496200003d6200005e60201b60201c565b6200006660201b60201c565b60018081905550806005819055505062000191565b600033905090565b60008060009054906101000a900473ffffffffffffffffffffffffffffffffffffffff169050816000806101000a81548173ffffffffffffffffffffffffffffffffffffffff021916908373ffffffffffffffffffffffffffffffffffffffff1602179055508173ffffffffffffffffffffffffffffffffffffffff168173ffffffffffffffffffffffffffffffffffffffff167f8be0079c531659141344cd1fd0a4f28419497f9722a3daafe3b4186f6b6457e060405160405180910390a35050565b6000815190506200013b8162000177565b92915050565b6000602082840312156200015457600080fd5b600062000164848285016200012a565b91505092915050565b6000819050919050565b62000182816200016d565b81146200018e57600080fd5b50565b61137380620001a16000396000f3fe6080604052600436106100dd5760003560e01c806391b7f5ed1161007f578063b62a2fb311610059578063b62a2fb3146102be578063b69ef8a8146102fb578063d0e30db014610326578063f2fde38b14610330576100dd565b806391b7f5ed1461022d57806398d5fdca14610256578063a340cf7914610281576100dd565b8063765e1dcf116100bb578063765e1dcf1461015f578063813b00b61461019c5780638baeeb1a146101c55780638da5cb5b14610202576100dd565b80631da0b8fc146100e25780632e1a7d4d1461011f578063715018a614610148575b600080fd5b3480156100ee57600080fd5b5061010960048036038101906101049190610e42565b610359565b6040516101169190611075565b60405180910390f35b34801561012b57600080fd5b5061014660048036038101906101419190610ed0565b6103a2565b005b34801561015457600080fd5b5061015d610518565b005b34801561016b57600080fd5b5061018660048036038101906101819190610ea7565b6105a0565b604051610193919061103f565b60405180910390f35b3480156101a857600080fd5b506101c360048036038101906101be9190610e6b565b610659565b005b3480156101d157600080fd5b506101ec60048036038101906101e79190610ea7565b61085a565b6040516101f9919061105a565b60405180910390f35b34801561020e57600080fd5b50610217610943565b604051610224919061103f565b60405180910390f35b34801561023957600080fd5b50610254600480360381019061024f9190610ed0565b61096c565b005b34801561026257600080fd5b5061026b6109f2565b6040516102789190611150565b60405180910390f35b34801561028d57600080fd5b506102a860048036038101906102a39190610e42565b6109fc565b6040516102b5919061105a565b60405180910390f35b3480156102ca57600080fd5b506102e560048036038101906102e09190610e42565b610ace565b6040516102f2919061105a565b60405180910390f35b34801561030757600080fd5b50610310610b1d565b60405161031d9190611150565b60405180910390f35b61032e610ba1565b005b34801561033c57600080fd5b5061035760048036038101906103529190610e42565b610c3f565b005b6000600360008373ffffffffffffffffffffffffffffffffffffffff1673ffffffffffffffffffffffffffffffffffffffff168152602001908152602001600020549050919050565b6103aa610d37565b73ffffffffffffffffffffffffffffffffffffffff166103c8610943565b73ffffffffffffffffffffffffffffffffffffffff161461041e576040517f08c379a0000000000000000000000000000000000000000000000000000000008152600401610415906110f0565b60405180910390fd5b47811115610461576040517f08c379a000000000000000000000000000000000000000000000000000000000815260040161045890611110565b60405180910390fd5b600061046b610943565b73ffffffffffffffffffffffffffffffffffffffff168260405161048e9061102a565b60006040518083038185875af1925050503d80600081146104cb576040519150601f19603f3d011682016040523d82523d6000602084013e6104d0565b606091505b5050905080610514576040517f08c379a000000000000000000000000000000000000000000000000000000000815260040161050b906110d0565b60405180910390fd5b5050565b610520610d37565b73ffffffffffffffffffffffffffffffffffffffff1661053e610943565b73ffffffffffffffffffffffffffffffffffffffff1614610594576040517f08c379a000000000000000000000000000000000000000000000000000000000815260040161058b906110f0565b60405180910390fd5b61059e6000610d3f565b565b60006105aa610d37565b73ffffffffffffffffffffffffffffffffffffffff166105c8610943565b73ffffffffffffffffffffffffffffffffffffffff161461061e576040517f08c379a0000000000000000000000000000000000000000000000000000000008152600401610615906110f0565b60405180910390fd5b6004600083815260200190815260200160002060009054906101000a900473ffffffffffffffffffffffffffffffffffffffff169050919050565b610661610d37565b73ffffffffffffffffffffffffffffffffffffffff1661067f610943565b73ffffffffffffffffffffffffffffffffffffffff16146106d5576040517f08c379a00000000000000000000000000000000000000000000000000000000081526004016106cc906110f0565b60405180910390fd5b60011515600260008473ffffffffffffffffffffffffffffffffffffffff1673ffffffffffffffffffffffffffffffffffffffff16815260200190815260200160002060009054906101000a900460ff16151514610768576040517f08c379a000000000000000000000000000000000000000000000000000000000815260040161075f90611090565b60405180910390fd5b80600360008473ffffffffffffffffffffffffffffffffffffffff1673ffffffffffffffffffffffffffffffffffffffff16815260200190815260200160002081905550816004600083815260200190815260200160002060006101000a81548173ffffffffffffffffffffffffffffffffffffffff021916908373ffffffffffffffffffffffffffffffffffffffff1602179055506000600260008473ffffffffffffffffffffffffffffffffffffffff1673ffffffffffffffffffffffffffffffffffffffff16815260200190815260200160002060006101000a81548160ff0219169083151502179055505050565b6000610864610d37565b73ffffffffffffffffffffffffffffffffffffffff16610882610943565b73ffffffffffffffffffffffffffffffffffffffff16146108d8576040517f08c379a00000000000000000000000000000000000000000000000000000000081526004016108cf906110f0565b60405180910390fd5b600073ffffffffffffffffffffffffffffffffffffffff166004600084815260200190815260200160002060009054906101000a900473ffffffffffffffffffffffffffffffffffffffff1673ffffffffffffffffffffffffffffffffffffffff1614159050919050565b60008060009054906101000a900473ffffffffffffffffffffffffffffffffffffffff16905090565b610974610d37565b73ffffffffffffffffffffffffffffffffffffffff16610992610943565b73ffffffffffffffffffffffffffffffffffffffff16146109e8576040517f08c379a00000000000000000000000000000000000000000000000000000000081526004016109df906110f0565b60405180910390fd5b8060058190555050565b6000600554905090565b6000610a06610d37565b73ffffffffffffffffffffffffffffffffffffffff16610a24610943565b73ffffffffffffffffffffffffffffffffffffffff1614610a7a576040517f08c379a0000000000000000000000000000000000000000000000000000000008152600401610a71906110f0565b60405180910390fd5b600260008373ffffffffffffffffffffffffffffffffffffffff1673ffffffffffffffffffffffffffffffffffffffff16815260200190815260200160002060009054906101000a900460ff169050919050565b60008060001b600360008473ffffffffffffffffffffffffffffffffffffffff1673ffffffffffffffffffffffffffffffffffffffff1681526020019081526020016000205414159050919050565b6000610b27610d37565b73ffffffffffffffffffffffffffffffffffffffff16610b45610943565b73ffffffffffffffffffffffffffffffffffffffff1614610b9b576040517f08c379a0000000000000000000000000000000000000000000000000000000008152600401610b92906110f0565b60405180910390fd5b47905090565b6005543414610be5576040517f08c379a0000000000000000000000000000000000000000000000000000000008152600401610bdc90611130565b60405180910390fd5b6001600260003373ffffffffffffffffffffffffffffffffffffffff1673ffffffffffffffffffffffffffffffffffffffff16815260200190815260200160002060006101000a81548160ff021916908315150217905550565b610c47610d37565b73ffffffffffffffffffffffffffffffffffffffff16610c65610943565b73ffffffffffffffffffffffffffffffffffffffff1614610cbb576040517f08c379a0000000000000000000000000000000000000000000000000000000008152600401610cb2906110f0565b60405180910390fd5b600073ffffffffffffffffffffffffffffffffffffffff168173ffffffffffffffffffffffffffffffffffffffff161415610d2b576040517f08c379a0000000000000000000000000000000000000000000000000000000008152600401610d22906110b0565b60405180910390fd5b610d3481610d3f565b50565b600033905090565b60008060009054906101000a900473ffffffffffffffffffffffffffffffffffffffff169050816000806101000a81548173ffffffffffffffffffffffffffffffffffffffff021916908373ffffffffffffffffffffffffffffffffffffffff1602179055508173ffffffffffffffffffffffffffffffffffffffff168173ffffffffffffffffffffffffffffffffffffffff167f8be0079c531659141344cd1fd0a4f28419497f9722a3daafe3b4186f6b6457e060405160405180910390a35050565b600081359050610e12816112f8565b92915050565b600081359050610e278161130f565b92915050565b600081359050610e3c81611326565b92915050565b600060208284031215610e5457600080fd5b6000610e6284828501610e03565b91505092915050565b60008060408385031215610e7e57600080fd5b6000610e8c85828601610e03565b9250506020610e9d85828601610e18565b9150509250929050565b600060208284031215610eb957600080fd5b6000610ec784828501610e18565b91505092915050565b600060208284031215610ee257600080fd5b6000610ef084828501610e2d565b91505092915050565b610f0281611187565b82525050565b610f1181611199565b82525050565b610f20816111a5565b82525050565b6000610f33600883611176565b9150610f3e826111d9565b602082019050919050565b6000610f56602683611176565b9150610f6182611202565b604082019050919050565b6000610f79601483611176565b9150610f8482611251565b602082019050919050565b6000610f9c602083611176565b9150610fa78261127a565b602082019050919050565b6000610fbf601483611176565b9150610fca826112a3565b602082019050919050565b6000610fe260008361116b565b9150610fed826112cc565b600082019050919050565b6000611005601483611176565b9150611010826112cf565b602082019050919050565b611024816111cf565b82525050565b600061103582610fd5565b9150819050919050565b60006020820190506110546000830184610ef9565b92915050565b600060208201905061106f6000830184610f08565b92915050565b600060208201905061108a6000830184610f17565b92915050565b600060208201905081810360008301526110a981610f26565b9050919050565b600060208201905081810360008301526110c981610f49565b9050919050565b600060208201905081810360008301526110e981610f6c565b9050919050565b6000602082019050818103600083015261110981610f8f565b9050919050565b6000602082019050818103600083015261112981610fb2565b9050919050565b6000602082019050818103600083015261114981610ff8565b9050919050565b6000602082019050611165600083018461101b565b92915050565b600081905092915050565b600082825260208201905092915050565b6000611192826111af565b9050919050565b60008115159050919050565b6000819050919050565b600073ffffffffffffffffffffffffffffffffffffffff82169050919050565b6000819050919050565b7f6e6f742070616964000000000000000000000000000000000000000000000000600082015250565b7f4f776e61626c653a206e6577206f776e657220697320746865207a65726f206160008201527f6464726573730000000000000000000000000000000000000000000000000000602082015250565b7f4661696c656420746f2073656e64204574686572000000000000000000000000600082015250565b7f4f776e61626c653a2063616c6c6572206973206e6f7420746865206f776e6572600082015250565b7f696e73756666696369656e742062616c616e6365000000000000000000000000600082015250565b50565b7f77726f6e67206465706f73697420616d6f756e74000000000000000000000000600082015250565b61130181611187565b811461130c57600080fd5b50565b611318816111a5565b811461132357600080fd5b50565b61132f816111cf565b811461133a57600080fd5b5056fea26469706673582212204418589cd93ab18d4085ce1755d102986d47fca6ab6a08f5b0babb3e0423f7d564736f6c63430008040033",
  "linkReferences": {},
  "deployedLinkReferences": {}
}